:100000000C9448070C9471070C9471070C947107B9
:100010000C9471070C9471070C94AB380C94710715
:100020000C9471070C9471070C9471070C94F723CE
:100030000C9471070C9471070C9471070C94710760
:100040000C9471070C9471070C9486380C945938F1
:100050000C9471070C9471070C9471070C94710740
:100060000C9471070C947107040002000004000452
:100070000000040704040000040404000000000061
:100080000000040000000000040000020200000064
:100090000204070004070704000000000404000431
:1000A000040000040002020404040404000004002C
:1000B000040404040404040004000203040004040F
:1000C0000004000400000400040000000000000020
:1000D0000001020102C700F32602000100000039FE
:1000E00027030001000000F237040001000000F5C2
:1000F000370500010000003A3806010001F00D76D6
:100100000F070001000000EC0F08010001C600D03D
:100110000F0900010000008C250A020101EB0DB25D
:10012000260B030103C3008D250C020102C100C789
:10013000260D020002C700392B0E020002BD0DB7CA
:10014000110F030003C300921210020002C1002A23
:100150001211050005BC00481212020002BD0DC4B8
:100160002813010001C6001B2914020002C100F37C
:100170002815020002BD0D382816040004B80045F9
:100180002C17050005B3003E2B18010001C6009690
:100190002019080008AB0009211A030003A8006019
:1001A000211B020002BD0D53201C020002C100DC15
:1001B000201D040004D80D99211E010001C600CAAB
:1001C000201F080008A000673320020002C1003190
:1001D0003321040003BF0DFB1722030002DC0D22B4
:1001E0001923030002DC0D321924040004B90D9315
:1001F0003225010001C6008B32260300039D005BFF
:1002000032270600069700A91328030003A800D28E
:100210001729050003940053222A04000391000BC0
:10022000132B030002DC0D5E132C040004B90D6FC8
:10023000132D0300038E006A142E030003DE0D73DA
:10024000142F0600068800ED1430060006820023F5
:100250001531010001C600911032030003C300F202
:100260001033020002BD0D4B1434030002DC0DB547
:100270003435040004D80DAC3536030003A8006003
:100280001037010001C600722D38030003C3009D22
:100290002F39020002BD0D532D3A030002DC0D3E42
:1002A0002E3B030002DC0DCF2E3C06000682005DD3
:1002B0002E3D030002DC0DB51A3E030002DC0DD119
:1002C0001A3F0800087A00ED1A40020002BD0D4AEC
:1002D0001D410500057500DF1D42040004E50D17F2
:1002E0001A43020002BD0D431A440400037200E2E7
:1002F0001C450500056D00831D46010001C6002751
:100300002A47040003CE0DD22A480500056800FCE8
:100310002A49040004B90D73234A0300039D00A574
:10032000234B00010000004D384C00050000007810
:10033000DAA559E96EDC46127E95CE00C66E16929D
:100340003007398716FE218D948590C8563C56BCDF
:10035000C022205A64CF4C43BCC226756CA0774F94
:1003600055575FE48C9D60D78031ECEEAA3EEAF8E9
:10037000EAD0EFA3874EE659F2241A25AB528DCE70
:1003800047BB343D677FFFD77AFD3D8BCFA2B331AA
:100390007B9065D7CA5CE1EC877B766986DFB3E941
:1003A000D9747E361D4FE6E3C9341E9D8CD2AA282F
:1003B0007899C126BF8F789E57296F4552C94CB195
:1003C000B4EACAF6FDBB7474BE3C8113DB168E4AD8
:1003D00078FAC86015A683F5791410649925A82BBE
:1003E000A57F64F9FE5DC7EA2ECF93AE2686B96776
:1003F000F8AD13CDABDB132EF088D48D506DD2CA7F
:10040000F451D1A86D78A90AD926F654264B78BFA5
:10041000393F8677E4823789DA776D563D97A3F3C3
:10042000293EADDCCA1DDCE8259F45B13D42D532F1
:10043000A1CFD1793CF15425CFAB5D224B777B7DA9
:10044000EDD1F9CCEF64AE6C29689804725838523B
:100450003D299AFE663D192C22479CC99D6C799EC8
:10046000545D3B6078E27927709C892DEFF23671FC
:1004700013057F49B2AEE12D5880BEE7C41F2E4060
:100480009F6D55F7F64A7B874FE78E789F45D1627F
:1004900039B6C48D4ACCD9C27E6491FB8ADDD7DCE3
:1004A0007D2DDC97C8F9AB531A8863E60E91D3D43F
:1004B0001E009F2048522BD81AFE82CD80BE89296B
:1004C000F26229EA6E358DC721A3539C7F6C29AA5D
:1004D0005ABE887C20B98CB73C51F2BF70C0BE03B5
:1004E000776813945860514AC0942C83FB2EBCA6A5
:1004F000EBE7E28836D257B032BF87D1C5BE1B6A60
:1005000007660ED413F91B83050E3746C76AE593B9
:1005100048F672B7D72F9C2D437A30CF5D2E0E4D03
:1005200098B9B5A47DAD05C926EA715A9738C66C4D
:10053000969242EDDEBFFB0760C06CD6E37D96ED80
:100540001EC490A4D6E681227847BB584D9D7A52AE
:1005500067382ACD1FDDB7CCDCE76B99267D1B61A0
:100560006991250766330E4E1075EDBD088789B178
:10057000E64C36F6939040137BAA2E5722D874EAA5
:100580001FD6EE455354E0A0F5518986CB5EA89165
:10059000BF545BA41D6F9C6D342FC98177B3D64DBA
:1005A000A2E5B5B210F4B495DFA5417978B1C2FEE9
:1005B0009978E8C09EAB7A74BEB223D865A76D99CE
:1005C000F43371648DE000B44D261A3C0F3D885021
:1005D000606A099E1BD98A030A345A2204E81385EB
:1005E0006876A24C5F13840BB8044C117424FBAAE8
:1005F0001007A0AC7851870E60C60E92FBA00D5775
:10060000F77045CF75326EE46E271A7C8442FF4046
:10061000448AFDE13A24C09D782B9C80A660D55B7E
:1006200009200D2E9D900C59DAA424D693D10EBC2E
:1006300059DF13ECDF8C340D78350DBB1AB5008A09
:100640003C1919C44B149C9780053A40C76F92F32C
:100650007C3A2043155832AF8E39081161A9A8326F
:10066000B97D4D40D76EAF46689762262EC10D709A
:1006700095D822C3463AECD3E35C920B031A53227B
:1006800034BA1C1E1F81C26426CA160E67D5760BAB
:10069000A768A7720109CEB1F0A89FE1A4B9180715
:1006A0002B5D9D794953D4DE77C1310BD886543206
:1006B00008A5C7A33568603C60D0BAEC3C88442BE1
:1006C00047300CBBFFA3B115DED80CFAFA11A40E0B
:1006D0003B60DC8BF43108D633F7AA41AC7637A8FF
:1006E0002BF0E7E1F941B898D90D0681EAAB6299A0
:1006F0000F18866289634B7000F95F498CD0A601A0
:10070000E1E596DE14BB2B1D03B9AFEC1188AE27D3
:10071000391A00B882CF65A1E048799D3896B7B8FC
:1007200033AA30B24E62CB3208AC8EDC690B8C63DC
:100730006E8911C95DF4471511785903DFEBCC01BF
:100740007E25C003788A8EE9A097D87C6A7E428590
:10075000E179C000368A34E11B064917DC7B76401C
:10076000A45FA01301B7672F2B00A6393195E2C50E
:100770005C016295735ED9109C4D88C8CAE34F3204
:100780000C900ABC2A08F6980E6FBDCD7A678DA72B
:100790004417B87BB03A8BEC6A8B495818FE4C4E24
:1007A00006502682DC0C58E69E4555DBF69937222A
:1007B000E42DA4AA6CB02B2A258F6501079B464B1C
:1007C000DAF4EBEF98E17B7582F12D9C8E577DAAD0
:1007D000E3301DE369944A24180B00E2242666CE18
:1007E000F1262B4FA023105A2FC528E6425610C0E1
:1007F0008003B63489404FD41AA91D90535580A464
:10080000C48D3244973DE2016012015D1B2618A29F
:10081000AE1A13DDC87BF5D8198978A925A8248CD0
:10082000A52BB7D3E0152111044642FE637E1CF8C8
:1008300040F4669316AC112FAED6C9EDC5BF311585
:10084000C19CEAF27E93DCDD7CD82062411D7A7780
:10085000199DDC5DCEE03FD6966EB17DD68BEBF870
:10086000E46E1DC1C2FAA78FEB1F931F3E5DFF8C84
:10087000EE32D6FF4E46B7EB7BA0E26D21767C369A
:100880005DD64078F7E5964E9B22367EBA5E5FDFF6
:10089000FC729D7CB9F970F5F10BAA6D8A939BEB04
:1008A0004F3049B7108DE4399E75353EB9BB9AC0BB
:1008B00016B07A73F1537279717F85DBD0519BCF7B
:1008C000179F37C9E6FE76F333AC6CAE7165FE86D2
:1008D0001948073991CEDA75456C8A15FCD46F1822
:1008E000030DD8348EEF2EC7A3F3FF2C4F96BFC253
:1008F00035D7F80D8EAF075738807C450FAE7100A5
:1009000035E4F2D7B79E034362A94BEEC96C368338
:100910007D4F465CC5E36891E9A0DDE62286FAFCDE
:1009200001AE65B8CC25B494F1121839241A4A03E3
:1009300009622233A31AA655B8A5904765DE458EF5
:1009400096F8CA6CF29411ACAD79C9CAAA656092E6
:100950000CDD9A011211FC306D59EC792FE19B2CC2
:1009600044B11A6C1C4E22DCB4BC9D123A02351301
:10097000B6AD1A06CAFAA71D4B85AB999ED7538A06
:10098000D20260FD5B8BB00D95C10E2E04E9366F6F
:10099000919A9B6B521D44F9A02156488A86495969
:1009A0002BCD6A84D75BC34D45C96CA9E0F8C1342F
:1009B000D6D4DB60356FC03098689AAAD109A15DA2
:1009C0006804041AD5EA0EC70F1CDE9BB1B662DAC2
:1009D0009FB162D56E4801E986C220B32D00DF9138
:1009E000A068448065A94C5345E7A27E0EC8F02A52
:1009F000BC1010CAA824B18B45F524EC6D1856AD77
:100A0000E8777ED9D5B8AEAAA58AE460DDA472EEF7
:100A10007C8CD5960804C8C8ECB048B0B3588C5A42
:100A2000EF464808E64D0692EE656D1867519F0047
:100A300054D0D5FE4D8AC294A5E8E520C12E084FBA
:100A4000B7FC05ED7469054A85E5AD508AEF04836E
:100A50009A042286551888FF562AB42605495CD682
:100A6000E558130133065866B04B1BBE7812A8092F
:100A70008CAD5F67D8F326D3C66EA8B1BF738BE287
:100A8000D7390783AF669B57CF94B47C002BE78C94
:100A90009E83EEA57D1F5B14E102D83D2D603B29AE
:100AA0005C90654DA19D3279BD54E24DFDF44C63DF
:100AB0009CB3FEBAA97620CC02AECEF16D5B888DD8
:100AC000704B10B640C7C5BCF993308F426345CF19
:100AD000826350D4A006B464AC2D368EE0403AEC6C
:100AE00059E639848C14F6EB352928087A4E27A16B
:100AF0006F70600ABD012F241DEA0B20852CBAC23D
:100B0000CE59E7001D6E6C23429744B099F65B8D79
:100B10004161D76E631CB9AD2AB6E5FA75F432AC03
:100B2000003F872685220342DD7AA1F0F959CB03E5
:100B300039215A2AA12BDAFB527535464C414EAD6C
:100B40009114F38F2FBC4DF759B523297E47A993F4
:100B50006E8142ADD0958FB031220275D68279E593
:100B600017E055E42300190A900E3D186231547DB8
:100B70008AF41BF45308B0AA32078C7B820DF84329
:100B80006EA1CB3D7FA5CB3D6652046A1A0DEACB20
:100B900073F611C013C2D40346F52DF617D477D4DB
:100BA0003FD05D5B87A3A6979B51D34061955802C8
:100BB0004290C9A4B0AC0DCA65311A5AB4E872DECD
:100BC00060ECC006D491FC00F545D68DCD2103B76D
:100BD000E43B981541683A68A0606C82203E9B2CEB
:100BE000E358873A3398EB58478379AC950F83F9EC
:100BF0007C01DFB3B7379DC5D7800D829AD3A69409
:100C00000C533C858859A66250B0AE40EA472B4F42
:100C10005F6F982AC9E65094AB87BB3D74DAF7340E
:100C2000D7566E2BFCCD65D081C6A41CF30F57C1DF
:100C3000F61A16B4E3B1F2661974D37B1C3C284F44
:100C4000995EA1D79C225E5215E393C5A5EB5C4348
:100C5000F034BD0EFD40DD12C1396B553A470754E3
:100C60000BEFBDD49D4E5DF57EEBD686C37C24FE96
:100C7000F4534C2C6C1F4A81FBB9B6D232F26D9CF6
:100C8000DECEFB0AEACCDDE119619708D8E7BE3376
:100C90009258F5FBE495C646C913DFFC08485D177A
:100CA00084CCE10C49C1E40281B061EE4432598048
:100CB000AFD9BAFC2FD8D8297ADCD13AFEFF32B2AC
:100CC000EED0C84E67611BC7C8DB5EAE4B53DD3943
:100CD0004F5129F0029042D82F5C6201EB71D7B6D8
:100CE000568E0B601926A87F4904D39023A8824210
:100CF00006D0D4D1D2F540BD617B22D473D42F1558
:100D0000FFC42C96BA940340D3D9EA624EA9B2F23A
:100D1000B6ACBAC2FCA8DFA88F13147F83CA909A1E
:100D20006190722FE301AEF5D570D4D93B8A4C5A4D
:100D300037ABB12F170FEF8F8522797AAF04F4CE3E
:100D40009372578F1E6D9F86C0A0CB3A9D17D3DF3D
:100D500012BA70114B07F3674328929EC66793C976
:100D6000D9F874325D9EEEE2451A653C16A3B73F92
:100D7000006A8A8C6B460A000000002300260029C6
:100D8000002C001E47004400450080011D4800441F
:100D900000450020010988008000810080000A8A47
:100DA000008000810020000BB300B000B100800380
:100DB0001BB400B000B100200304000000040404D0
:100DC00004070400000204000204020400070402F5
:100DD00007040000020404020400000404070400E5
:100DE00002040404000404000404010704000402D3
:100DF0000000000000000006000202661704B90DA2
:100E0000650A02BD0D644002DC0D634003BF0D6244
:100E10004003CE0D611F07C20D604003CE0D5F0B76
:100E200002C90D5E4003CB0D5D4003CE0D5C1C0777
:100E3000D10D5B4002DC0D5A1404D80D594002DC80
:100E40000D581003DE0D571104E10D561104E50D88
:100E5000550D02E90D540B01F00D534001EB0D52FD
:100E60001204EC0D510B01F00D501002F10D4F1555
:100E700003F30D004002F60D4E0E02F80D4D090170
:100E8000FA0D4C0600000010111213141522230055
:100E900011241FBECFEFD8E0DEBFCDBF14BE0FB60A
:100EA000F894A8958091600088618093600010920A
:100EB00060000FBE11E0A0E0B1E0E4ECF2E702C098
:100EC00005900D92AA32B107D9F722E0AAE2B1E06B
:100ED00001C01D92A639B207E1F70E9424250C94A7
:100EE00060390C940000CF93DF93CDB7DEB76A97DB
:100EF0000FB6F894DEBF0FBECDBF0E9411256B0167
:100F00007C019E012F5F3F4F1901AE01475F5F4F8C
:100F10005D874C8780912601882309F43DC50E9496
:100F20001125C61AD70AE80AF90AF8948091260111
:100F3000882351F08FEF8093260178940000F89475
:100F4000809126018111F9CF78940E941125A70183
:100F50009601260F371F481F591F2A8B3B8B4C8B3E
:100F60005D8B81E08093260180914A01882309F4FA
:100F700040C010924A018FEF89836AEC70E2C10190
:100F80000E941B108C01892BA1F1D80156968C91DF
:100F900082FFF3CF0E941125F894F8013789268942
:100FA000422F4B7F468B78949F938F937F936F93C1
:100FB0001F923F9321701F922F9389811F928F93CD
:100FC00046E4C42E4EE0D42EDF92CF920E947630BB
:100FD0002DB73EB7245F3F4F0FB6F8943EBF0FBE0C
:100FE0002DBF6AEC70E2C1010E941B108C01892B9D
:100FF00061F680914B018823F9F010924B018FEF3D
:10100000898361E373E3C1010E941B10FC01892BFA
:1010100099F0958D868D9813F4CFF894858D968DE3
:10102000891709F497C5789461E373E3C1010E94BD
:101030001B10FC01892B69F780914701882309F473
:1010400049C0109247018FEF8B87DE011B962D015F
:1010500062ED77E1C2010E941B105C01892BD1F186
:10106000F501818D80FFF4CFF894648075808680CF
:101070009780818D8E7F818F7894808D813009F467
:10108000F5C308F4D6C3823009F496C3833001F760
:10109000CB8419821A82910142E061E0F5018489D2
:1010A00095890E94281809811A8110270127102785
:1010B000F02FF670EF2E20E030E0B401A301C5015F
:1010C0000E94EB1362ED77E1C2010E941B105C01EC
:1010D000892B31F6809146018823B1F110924601A7
:1010E0008FEF8B879E01255F3F4F2901B2E0DB2EFA
:1010F0001DE2E12E08E0F02E6BE474E1C2010E94D3
:101100001B108C01892B01F1D80152968C9182FF22
:10111000F3CF80FF82C0C8010E94DA33F801D28A7F
:10112000E982FA82910142E060E0848595850E941F
:101130002818C8010E946A156BE474E1C2010E947C
:101140001B108C01892B01F780914501882309F43C
:1011500069C0109245018FEF8B879E01255F3F4F3D
:10116000290166246A94ADE17A2E03E260E670E11B
:10117000C2010E941B105C01892B09F453C0D501E8
:1011800050968C9182FFF2CFF894F50144815581FD
:10119000668177811489108A148A78948085918574
:1011A000A285B3856A017B01C81AD90AEA0AFB0A3B
:1011B000CE86DF86E88AF98AD501112389F0529616
:1011C0008C91F501E80FF11D658A168A178A8D5FEB
:1011D000F501828B8E32D8F41150D5011111EFCF69
:1011E00051968C91882309F484C2813009F46BC331
:1011F000823009F461C4D50152968C9190E08E97AB
:101200000CF4B4CF6B85C5010E948635AECF6B85DB
:10121000C5010E9486351150E0CF6B85C8010E9440
:10122000AF156ACF80915101882309F462C01092F2
:1012300051018FEF8B87FE013B962F0112E0A12E0B
:1012400003E2E02E8AE6F82E94E0B92E20E4C22EC6
:1012500038E0D32E63E57DE2C2010E941B108C01B1
:10126000892B09F446C0D80152968C9182FFF2CFA7
:1012700080FF35C1C8010E94DA33F801A28AE982F1
:101280001A820484F585E02DA10162E080810E942C
:101290002417F982BA82D8011C96ED91FC911D9712
:1012A000A10162E080810E942417F982CA82D801DC
:1012B0001C96ED91FC911D97A10162E080810E9436
:1012C0002417E982DA82D8011C96ED91FC911D97D2
:1012D000A10162E080810E942417C8010E94EE2EC5
:1012E00063E57DE2C2010E941B108C01892B09F08D
:1012F000BACF809148018823E9F0109248018FEF1E
:1013000089830AE01EE063E47AE1C1010E941B10B8
:10131000009781F0FC01208D2F3FA9F7F8942685D6
:10132000211105C3789463E47AE1C1010E941B1086
:10133000009781F7809149018823D9F110924901E2
:101340008FEF898305E01EE063E87DE1C1010E9423
:101350001B10009771F1DC011E962C911E9723FF44
:10136000F3CFF894FC012685277F268778949C018B
:10137000265E3F4F3F932F9350968C91869586958E
:1013800086951F928F9389811F928F931F930F933E
:101390000E947630EDB7FEB738960FB6F894FEBFD0
:1013A0000FBEEDBF63E87DE1C1010E941B100097F5
:1013B00091F680914E01882309F446C010924E01A7
:1013C0008FEF89830BEF1DE065EA73E2C1010E9494
:1013D0001B10FC01892BC1F1848D80FFF5CFF8949F
:1013E0009481258136814781548965897689A789C9
:1013F000B08DF18CE28CD38C848D8E7F848F789429
:10140000DF92EF92FF92BF93AF937F936F935F93BF
:101410004F933F932F939F9389811F928F931F9395
:101420000F930E9476302DB73EB7205F3F4F0FB627
:10143000F8943EBF0FBE2DBF65EA73E2C1010E9462
:101440001B10FC01892B41F6A8958091720188231D
:1014500029F080E4809360001092720110913302B1
:10146000112309F472C000912A0100FD12C0153049
:1014700008F46BC0B0907301CB2C8BEF8B0D8C33C9
:1014800008F4B1C2EEE7CE1609F422C4016000935D
:101490002A01412F50E06EE770E083E791E00E945F
:1014A0003139009739F00E7F00932A01835791401C
:1014B00011E0180F01FD0CC0902F926090932A014B
:1014C0008AE293E09F938F930E9476300F900F9063
:1014D000B12EDD24DA9480E0EB2CF12C1DC06B855D
:1014E000C8010E940D2FB6CE90E0402F50E0481B5F
:1014F000590BB701680F791F6D587E4F8D589E4F5D
:101500000E94473910922601802F9FB7F8942091AE
:101510003302121761F09FBF10913302012F0B1994
:1015200019F79FB7F894209133021213F4CF009368
:1015300033029FBFF1E0DF1208C08AE293E09F937D
:101540008F930E9476300F900F900E9411256B01AF
:101550007C012A893B894C895D89621B730B840B52
:10156000950B8090330190903401A0903501B0909C
:1015700036013FEF831A930AA30AB30A809233011C
:1015800090923401A0923501B092360140902F0123
:10159000509030016090310170903201460E571E1C
:1015A000681E791E40922F015092300160923101E5
:1015B000709232016115710541E08407910508F0D0
:1015C000F0C19B01AC010E94B638DC01CB01815017
:1015D0009F4FAF4FBF4F892F9A2FAB2FBB27409103
:1015E0002B0150912C0160912D0170912E01840FDF
:1015F000951FA61FB71F84179507A607B70718F4EE
:101600008FEF9FEFDC0180932B0190932C01A0932F
:101610002D01B0932E0140916E0150916F016091A8
:101620007001709171015C546B437B4F2F2DC41678
:10163000D506E606270B27FD6DCCBF93AF939F938E
:101640008F937F926F925F924F92BF92AF929F92D1
:101650008F928EE69EE09F938F930E9476306DB7B7
:101660007EB7625F7F4F0FB6F8947EBF0FBE6DBF2F
:1016700080916E0190916F01A0917001B091710104
:10168000C816D906EA06FB0698F480916A01909183
:101690006B01A0916C01B0916D010196A11DB11D6E
:1016A00080936A0190936B01A0936C01B0936D01DC
:1016B000C0926E01D0926F01E0927001F0927101C0
:1016C00010922B0110922C0110922D0110922E01DC
:1016D00010922F01109230011092310110923201BC
:1016E000109233011092340110923501109236019C
:1016F00011CC82E389831A820E9411256B017C013F
:10170000910142E061E0F501848595850E942818E9
:101710000E941125DC01CB018C199D09AE09BF097E
:1017200081329340A105B10508F0F3C0998197FD7E
:101730002AC12E853F8548895989C21AD30AE40AED
:10174000F50AD50153968C918823C1F02FEF280F0D
:1017500041E050E002C0440F551F2A95E2F7052EE4
:10176000000C660B770BC40ED51EE61EF71E04C0D8
:10177000F694E794D794C7948A95D2F7BFEFCB1627
:10178000D104E104F10408F05CC12A8130E0220FA9
:10179000331F892F90E0982F8827990F822B932B46
:1017A000F5012289E20FF11DC58A868B978B2D5F8B
:1017B000D50152962C931FCDCB8481E089831A8268
:1017C0001B821C82910143E061E0848995890E941B
:1017D000281869817A818B819C810E94C638BB2739
:1017E000A92F982F872F9C01AD01442755272E87BD
:1017F0003F87488B598B37E039831A82910142E049
:1018000061E0D50154968D919C9155970E942818BE
:101810008A81982F9C7F8E858170E92EE82A0E851B
:101820001F8528893989B401A301C5010E94EB13E2
:101830000FCCCB8419821A821B821C82910144E056
:1018400061E0848995890E94281869817A818B8159
:101850009C810E94C638B62FB770EB2E8B019C017D
:10186000B401A301C5010E94EB13F2CBCB84CE8659
:101870003CE0D32ED9821A821B821C82910144E063
:1018800061E0848995890E94281869817A818B8119
:101890009C810E94C6386B017C01BFE0B9831A822B
:1018A000910142E061E0F501848995890E94281840
:1018B000970186013327CE84EA80B401A301C501D4
:1018C0000E94EB13C5CB8FE789838EEF8A830E943A
:1018D00011256E8B7F8B888F998F910142E060E09C
:1018E000F501848595850E9428180E9411256B01B9
:1018F0007C01DC01CB012E893F89488D598D821BEB
:10190000930BA40BB50B81329340A105B10508F4EC
:10191000A5C0D50152968C91F501E80FF11D658A9D
:1019200092E0968B178A8D5FF501828B64CCFC0167
:10193000318D308F7894AC01415F5F4F5F934F934F
:101940001F922F9387891F928F9389811F928F9364
:101950001F930F930E947630EDB7FEB73A960FB6FD
:10196000F894FEBF0FBEEDBFCECC2C853D85E217AF
:10197000F30709F0E0C0809590E02A8530E08217F7
:10198000930709F408C1D50152968C91F501E80F2F
:10199000F11D658A93E0C5CFCA8ADB8AEC8AFD8A8D
:1019A000E0CA6115710550E18507910508F028CE60
:1019B0008B019C0101501F4F2F4F3F4F5527432F45
:1019C000322F212F0E94B638DC01CB0140912B0130
:1019D00050912C0160912D0170912E01840F951F63
:1019E000A61FB71F08CED09074018D2D807F803147
:1019F00009F048CD1B1508F4A8CD8B2D90E0FC0113
:101A0000EE58FE4F20812E3709F03CCDAC014059F5
:101A10005E4F4A01FC01EF58FE4F9081DA018C9134
:101A2000292F30E07901F82A6DEF6B0D83E791E003
:101A30000E942725E816F90609F44CC1C0907301ED
:101A400021CDF5018289E80FF11D658A91E0968B21
:101A5000178A8D5FD50152968C93CDCB80EC89830C
:101A60001A82910142E061E0D5011C968D919C9112
:101A70001D970E94281849812A81942F9227892F27
:101A800082958F709827892F869586958927982F1C
:101A90009695892780FD93C046FFA1C0F5018289F4
:101AA000E80FF11D658A75E0C72EC68A178A8D5F1B
:101AB000D50152968C939FCBD5011C96ED91FC914C
:101AC0001D9714818280938040E0B401812F0E9491
:101AD000A8170E9411256B017C01B0E1CB0ED11C2F
:101AE000E11CF11C0E9411252F2DC616D706E80611
:101AF000290B27FFF7CFF89441E0B401812F0E9412
:101B0000A8170E9411256B017C017894F1012AE04D
:101B100011922A95E9F734E839830A8391014AE062
:101B200061E0D5011C968D919C911D970E9428180B
:101B3000FE01339685E09191892728E030E005C0C9
:101B4000880F2150310909F410CF87FFF9CF880F92
:101B50008725F7CF548965899089218932894389FE
:101B60008F5F858F78946F935F934F933F932F93FD
:101B70009F9389811F928F9341E45EE05F934F931F
:101B80000E9476308DB79EB70A960FB6F8949EBF26
:101B90000FBE8DBF36CA898584FF18C08B8187FD33
:101BA00065C0D50152968C91F501E80FF11D658A4B
:101BB000B4E0B68B178A8D5FF501828B1CCBF501E3
:101BC0008289E80FF11D658A93E041CFD5015296D5
:101BD0008C91F501E80FF11D658AB5E0EACF6E85BD
:101BE0007F8588899989C61AD70AE80AF90AD50132
:101BF00053963C913323C9F08FEF830FE1E0F0E07F
:101C000002C0EE0FFF1F8A95E2F7CF01092E000CEC
:101C1000AA0BBB0BC80ED91EEA1EFB1E04C0F6940D
:101C2000E794D794C7943A95D2F7FFEFCF16D10433
:101C3000E104F10408F043C0842F90E0AC01542F7C
:101C40004427550F550FF4E02F9FC0011124842B1A
:101C5000952BD50152962C91F501E20FF11DC58A05
:101C6000868B978B2D5FF501228BC5CA2E853F850C
:101C700048895989C21AD30AE40AF50A31E5C3161C
:101C800035E5D306E104F104D0F42C8130E0220FD5
:101C9000331F90E0982F8827990F822B932BD50123
:101CA00052963C91F501E30FF11D2F8126952F737C
:101CB000258B868B978B3D5FF501328B9CCAD501B6
:101CC00052968C91F501E80FF11D658A91E029CEBD
:101CD00011E0FECB802F8D7F80932A018091080137
:101CE000D812FFC081E08D0D8F7080618093080154
:101CF000B5E78B16B1E09B0609F008F4BEC0E5E736
:101D0000F1E0BA8ECDB6DEB68F010F5F1F4F208196
:101D1000222309F4E8C0E9E2F3E08491281708F0EF
:101D2000E2C030E0220F331F220F331F220F331F78
:101D3000F901E653FF4FE491EDB6FEB644E0E49FAF
:101D4000E018F10811240FB6F894FEBE0FBEEDBEE8
:101D50008DB79EB70196F901E453FF4F4491F90105
:101D6000E353FF4F65917491FB01640F711DAC014A
:101D7000DF86CE869F8B8E8BE617F70709F482C02D
:101D80008016910608F46EC0A491A53028F1A73002
:101D900009F068C02801BFEF4B1A5B0AD801AC906C
:101DA00082010A0D111D8016910608F45BC0B12C4A
:101DB000C12CD12CDA01AD92BD92CD92DC92139759
:101DC000612C712C14964D925D926D927C921797B6
:101DD000485F5F4F3196D0CF7A0184E0E80EF11C66
:101DE00068019FEFC91AD90AD8011C91912F9F77DA
:101DF000492E512C612C712C012F00760036A9F14F
:101E000017FF3EC086010F5F1F4FD80111978C91BD
:101E1000440C551C661C771C440C551C661C771C16
:101E2000440C551C661C771C440C551C661C771C06
:101E3000440C551C661C771C440C551C661C771CF6
:101E4000440C551C661C771C982F9F77492A87FDE8
:101E5000DACFDA014D925D926D927C921397A701D1
:101E600031968ACF87E00E94EB37B0EE4B2A55249B
:101E70005A94652C762CC4CFBA8CDD24D3942BCB0A
:101E80008601E7CFCE84DF848E899F894091270128
:101E9000442331F0F901E553FF4FE491E0FF11C015
:101EA00021533F4FF90125913491F90109950FB65E
:101EB000F894DEBE0FBECDBE08151905E8F6F80190
:101EC00021CF809128011F928F93EDE7FEE0FF93D1
:101ED000EF930E9476300FB6F894DEBE0FBECDBEF3
:101EE000EBCF1B2DEDCA85E00E94EB370F931F93BC
:101EF000CF93DF938C0180913F0190914001892B1A
:101F000009F04BC060913E0170E0623071052CF425
:101F100082E080933E0162E070E0E0913A01F0914E
:101F20003B014DB75EB741505F4F44275A959F0123
:101F3000C0E0D0E0C901860F971F4817590730F15C
:101F400021969C01C115A4E0DA07A1F78E1B9F0B17
:101F50000E945330D0934001C0933F0190933D01C4
:101F600080933C010E948F27F80180819181A2819A
:101F7000B3818093410190934201A0934301B093B8
:101F80004401DF91CF911F910F910895209711F097
:101F9000C901DCCF80E10E94EB378DE00E94EB3776
:101FA000CF932091380130913901232B91F4FC011A
:101FB000C0818C2F90E0880F991F880F991F0E9475
:101FC00053309093390180933801C0933701CF91FA
:101FD00008958AE00E94EB3780913F019091400183
:101FE0009F938F9321E030912701311101C020E0B0
:101FF0001F922F93209144012F93209143012F93FF
:10200000209142012F93209141012F9321E0892BB0
:1020100009F420E01F922F938FE59EE09F938F930A
:102020000E9476308DB79EB70C960FB6F8949EBF7F
:102030000FBE8DBF0895CF93DF93EC01988140913F
:102040003701A0913801B09139010BC0FD0184E046
:10205000989FE00DF11D112420813181261737074B
:1020600041F09F5F941790F380E090E0DF91CF9173
:102070000895988382819381DF91CF910895FC0127
:10208000808982FD19C08460808B1092260181E0D6
:102090008093450144815581668177818085918552
:1020A000A285B385840F951FA61FB71F84839583D0
:1020B000A683B78381E0089584898F5F848BE5CF01
:1020C000FF920F931F93CF93DF93EC01F88483E08B
:1020D0008F1508F145E450E060E670E188810E94C8
:1020E00048278C018FE390E1F801938382836BE5AD
:1020F00072E38C810E947727F80195878487FC0121
:10210000858180FF0BC0F801F18ADF91CF911F918B
:102110000F91FF90089582E20E94EB3781E20E94C6
:10212000EB378F929F92AF92BF92EF92FF920F93F5
:102130001F93CF93DF9300D0CDB7DEB77C016BE464
:1021400074E1FC0180810E9477278C0189EB8983EF
:102150001A820E9411254B015C019E012F5F3F4FA7
:1021600042E061E0F801848595850E9428180E946C
:102170001125F80121892F9320892F932A811F92FD
:102180002F9323891F922F9327852F9326852F9393
:10219000DC01CB0188199909AA09BB09BF93AF9348
:1021A0009F938F93BF92AF929F928F92F7018081FE
:1021B0001F928F938DE29EE09F938F930E947630C3
:1021C0000FB6F894DEBF0FBECDBF0F900F90DF911A
:1021D000CF911F910F91FF90EF90BF90AF909F9084
:1021E0008F9008954F925F926F927F928F929F92FD
:1021F000AF92BF92DF92EF92FF920F931F93CF9314
:10220000DF9300D0CDB7DEB77C01FC01D0806BE45A
:1022100074E18D2D0E9477278C01F70180859185CF
:10222000A285B385892B8A2B8B2B99F1C8010E943B
:10223000DA33F70184819581A681B781F80184831F
:102240009583A683B783F70180859185A285B385A1
:10225000F80180879187A287B38781E0828B118AFA
:10226000108A17861686138AC8010E942C340F9094
:102270000F90DF91CF911F910F91FF90EF90DF9022
:10228000BF90AF909F908F907F906F905F904F9096
:102290000895C8010E94DA33F801128A8DE2898319
:1022A0001A820E9411254B015C019E012F5F3F4F56
:1022B00042E060E0F801848595850E9428180E941C
:1022C00011252B013C0181E2F82E99EBE92E03C088
:1022D000FA94FF20C1F0E9821A829E012F5F3F4FDE
:1022E00042E061E0F801848595850E9428188A8182
:1022F0008F7749F0813260F76D2DC8010E94AF15CC
:10230000FA94F110E8CFF8018389882331F06D2D1C
:10231000C8010E948915F8018389F80191899F936A
:1023200090899F939A811F929F931F928F93878585
:102330008F9386858F93D301C20188199909AA09C1
:10234000BB09BF93AF939F938F93BF92AF929F921E
:102350008F921F92DF928DE29EE09F938F930E9457
:1023600076300FB6F894DEBF0FBECDBF80CF8F9210
:102370009F92AF92BF92FF920F931F93CF93DF93E1
:102380008C0168E472E1FC0180810E947727EC01F6
:102390000E94DA338F8D98A1892B09F058C0F8017B
:1023A00004811BA1FF24F394002339F16C897D89FA
:1023B0008E894F2D0E94A81721E001111CC014FB2B
:1023C000882780F991E08927281741F08F89988D17
:1023D000A98DBA8D892B8A2B8B2B89F410711F291B
:1023E0001BA3DF91CF911F910F91FF90BF90AF90F2
:1023F0009F908F90089520E0E2CFF12CD7CF0E94DC
:1024000011258F88988CA98CBA8CDC01CB01880DA2
:10241000991DAA1DBB1D888B998BAA8BBB8B8C83A6
:102420009D83AE83BF838AEA95E29B838A83107182
:1024300014601F291BA3CE01DF91CF911F910F9133
:10244000FF90BF90AF909F908F900C942C3482E1BE
:102450000E94EB37CF93DF93EC0168E472E188814F
:102460000E947727F894FC01278D30A1232B69F473
:102470004C815D816E817F81FC01438F548F658F1C
:10248000768F7894DF91CF91089584E10E94EB37A5
:10249000CF92DF92EF92CF93DF93EC0161E08885DA
:1024A0009985AA85BB85892B8A2B8B2B09F460E043
:1024B0008C810E94C3236B01E82E44E250E068E463
:1024C00072E188810E944827FC01C48AD58AE68A85
:1024D00021E0488559856A857B85452B462B472B0E
:1024E00009F420E04C855D856E857F85452B462B64
:1024F000472BB1F430E0232BFC0123A348895989F1
:102500006A897B89478B508F618F728F6AE070E098
:102510004F96DF91CF91EF90DF90CF900C94D92719
:1025200030E1E9CFCF92DF92EF92FF920F931F93AA
:10253000CF93DF938C0168E472E1DC018C910E94FF
:102540007727EC010E94F327FC01D8011496CD9067
:10255000DD90ED90FC901797C282D382E482F582E1
:1025600018964D915D916D917C911B974683578391
:1025700060877187F894118210828F8D98A1892BC2
:1025800081F0A9A1BAA1ED93FC93FAA3E9A37894F1
:10259000DF91CF911F910F91FF90EF90DF90CF903F
:1025A0000895FAA3E9A3F8A3EF8F8BA182FD25C0BC
:1025B000C88AD98AEA8AFB8A982F94609BA381FDF6
:1025C00010C0CE010E94DA33CC82DD82EE82FF821F
:1025D0008AEA95E29B838A83CE010E942C34789408
:1025E000D7CF4C815D816E817F81872F4C155D0532
:1025F0006E058F0987FFE5CFF2CF488959896A892F
:102600007B89972F4C155D056E059F0997FFD0CFED
:1026100083E10E94EB37AF92BF92CF92DF92EF92AD
:10262000FF920F931F93CF93DF93CDB7DEB77C015B
:10263000ADB6BEB6FC01C0806FE673E18C2D0E9482
:102640007727F701648140855185D4842DB73EB743
:102650002D1931090FB6F8943EBF0FBE2DBFEDB74F
:10266000FEB731967F018F012D2DFC0180810E94E4
:102670009A16FF92EF921F92DF921F92CF9282E3FF
:102680009EE09F938F930E9476302DB73EB7285FD0
:102690003F4F0FB6F8943EBF0FBE2DBF0FB6F89454
:1026A000BEBE0FBEADBEDF91CF911F910F91FF90C7
:1026B000EF90DF90CF90BF90AF900895CF93DF93CE
:1026C000EC016FE673E188810E9477274885598580
:1026D0006C81FC018081DF91CF910C942417EF92E3
:1026E000FF921F93CF93DF93EC018C85182F1F77F8
:1026F00041E050E06FE673E188810E9448277C0149
:102700008C819D81AE81BF81892B8A2B8B2BF1F42B
:102710008091BC0082FD10C061E084E10E94C3236F
:1027200061E085E10E94C3231092B90088E48093A0
:10273000B80084E08093BC00812F880FF70180836C
:10274000DF91CF911F91FF90EF90089580E30E9459
:10275000EB370F931F93CF93DF938C0162ED77E1FB
:10276000FC0180810E947727EC010E94DA33F80196
:1027700084819581A681B7818C839D83AE83BF833D
:1027800080859185A285B38588879987AA87BB872D
:10279000892B8A2B8B2B29F4DF91CF911F910F91DD
:1027A000089584859585A685B7858C879D87AE8796
:1027B000BF8780899189A289B389888B998BAA8BDD
:1027C000BB8B84898E8B1F8ACE01DF91CF911F91A5
:1027D0000F910C942C348F929F92AF92BF92CF9214
:1027E000EF920F931F93CF93DF93EC0148015901B0
:1027F0001F92EF92BF92AF929F920F937F936F932E
:102800005F934F931F92CF9287E39EE09F938F93A6
:102810000E9476308DB79EB70E960FB6F8949EBF85
:102820000FBE8DBFE11009C08C859D85AE85BF852B
:1028300088169906AA06BB0688F48F898F5F8F8B4E
:102840009E898917B0F4DF91CF911F910F91EF907E
:10285000CF90BF90AF909F908F900895888999896D
:10286000AA89BB8988159905AA05BB0530F31F8A7B
:10287000EACF809127018111FACF8CE10E94EB37DA
:10288000FC0192899460928B1092260181E08093E2
:10289000460180E008950F931F93CF93DF938C013F
:1028A00046E450E06BE474E1FC0180810E9448271B
:1028B000EC0180E494E19B838A836BE572E3F80189
:1028C00084810E9477279D878C87DF91CF911F910C
:1028D0000F910895FC01448155816681778120859F
:1028E00080810C945929EF92FF920F931F93CF93FD
:1028F000DF937C016DEE74E1DC018C910E947727FF
:102900008C010E94F327EC01F70184819581A68157
:10291000B7818A839B83AC83BD83808591859F83A8
:102920008E83F89419821882D80151968D919C91CA
:102930005297892BB9F15396ED91FC915497D1831D
:10294000C0835496DC93CE93539780E090E07894C4
:10295000892B39F4DF91CF911F910F91FF90EF9068
:102960000895C8010E94DA33D80112968D919C9186
:10297000139780559242F1F08A819B81AC81BD8191
:102980002BEC31E2F8013383228384839583A68381
:10299000B783C801DF91CF911F910F91FF90EF9006
:1029A0000C942C34F801D48BC38BD28BC18B81E077
:1029B00090E0CDCF8A819B81AC81BD81F8014481BB
:1029C000558166817781272F481759076A072B0B96
:1029D00027FFD6CF8FE10E94EB37CF92DF92EF92A5
:1029E000CF93DF93EC01488559856A857B852C85DB
:1029F0008C810E9459296B01E82E45E150E06DEE73
:102A000074E188810E944827FC01C086D186E28655
:102A100088899989908B87878C899D89AE89BF89A0
:102A200083879487A587B6878BEC91E29383828313
:102A300068E070E0CF014196DF91CF91EF90DF9099
:102A4000CF900C94D927DF92EF92FF920F931F93B0
:102A5000CF93DF93EC01D88883E08D15B0F16BE55F
:102A600072E388810E9477277C018AE090E00E94CF
:102A700053308C0161E08C810E946F17F8016083F4
:102A80007183828360E088850E94C323F801638399
:102A90007483858360E08C850E94C323F80166837C
:102AA00077838087D186F7018581982F967081F48E
:102AB000F7011183008382608583DF91CF911F919D
:102AC0000F91FF90EF90DF9008958BE10E94EB371C
:102AD0000E9425180F931F93CF93DF93EC01F89476
:102AE0000E941125088519852A853B85DC01CB01CB
:102AF000800F911FA21FB31F8C839D83AE83BF8362
:102B0000CE010E942C347894DF91CF911F910F91C8
:102B10000895CF93DF93EC0144969F938F938B8915
:102B20001F928F938F858F938E858F931F926F93B4
:102B300088E29EE09F938F930E9476301B8A8E8559
:102B40009F8501969F878E878DB79EB70A960FB691
:102B5000F8949EBF0FBE8DBFDF91CF910895DF9295
:102B6000EF92FF920F931F93CF93DF93CDB7DEB712
:102B700029970FB6F894DEBF0FBECDBF8C01F62E9D
:102B80009E012F5F3F4F89E0F90111928A95E9F785
:102B900082EF898349E061E0F801848595850E9490
:102BA0002818F801838990E09C012C5E3F4FE20FCA
:102BB000F31F3B81232F207F21F1203F11F12FEFC5
:102BC0002483238322832183F801E80FF91F248BB8
:102BD000F80183898B5F838B8E3208F05EC0F80129
:102BE000828981FD4FC029960FB6F894DEBF0FBED3
:102BF000CDBFDF91CF911F910F91FF90EF90DF90AC
:102C000008954D81242F207FC9F52F81522F507FA9
:102C100011F0503FA1F65885503989F659855F77F4
:102C2000E52E50E25E1558F2D801A80FB91F5A815F
:102C300054965C938C8181838E818283822F90E075
:102C40003F71BC01660F771F62957295707F762782
:102C5000607F7627362B3383880F991F880F991F43
:102C600080764F71482B4483F80183898B5F838B77
:102C70004EEFD42EDE0C8E32B8F012C0203F09F099
:102C80009ECFC3CFC8010E94DA33F80182898B7FBF
:102C9000828BC8010E946A15A6CF8EEFD82EE12C38
:102CA0006F2DC8010E948915FEE1FE1530F4F80170
:102CB000808991890196918B808BFEE1FD1508F446
:102CC0008ECF1092260181E0809346018CCFCF9267
:102CD000DF92EF92FF926B017C0109C00E941125E7
:102CE000292F6C157D058E052F0927FF09C08091BE
:102CF000BC0087FFF3CFFF90EF90DF90CF90089557
:102D00008FE20E94EB3724EA2093BC000E946716F2
:102D10008091B90090E0A0E0B0E080319105A1057C
:102D2000B10521F00897A105B10509F408958EE2D7
:102D30000E94EB377F928F929F92AF92BF92CF9279
:102D4000DF92EF92FF920F931F93CF93DF93782E32
:102D5000C62F942EB52E822E0E9411256B017C0168
:102D600020E8C20E28E3D21E21E0E21EF11CC701BA
:102D7000B6010E9483167092BB0084E88093BC0069
:102D8000C701B6010E946716AA24AA94AC0ECC23F0
:102D9000B1F0C92DDB2DB12C8FEFA81AB80AAC0EFB
:102DA000BD1E94E8992E89918093BB009092BC003F
:102DB000C701B6010E946716AC16BD06A1F7C70190
:102DC000B6010E948316872D81608093BB0084E842
:102DD0008093BC00C701B6010E946716DFEFD80DD3
:102DE000882009F15801CD2F84EC982ECC2369F06E
:102DF0009092BC00C701B6010E9467168091BB008B
:102E0000F50181935F01C15099F7F801ED0FF11DB4
:102E1000EF0184E88093BC00C701B6010E946716E9
:102E20008091BB00888384E98093BC00DF91CF91BF
:102E30001F910F91FF90EF90DF90CF90BF90AF90D8
:102E40009F908F907F900895BF92CF92DF92EF92E4
:102E5000FF920F931F93CF93DF93D82FC62FB42EDB
:102E6000152F0E9411256B017C0120E8C20E28E37A
:102E7000D21E21E0E21EF11CC701B6010E9483169A
:102E8000D093BB0084E88093BC00C701B6010E94C8
:102E900067160FEF0C0FCC23A9F0CB2DD12F10E02C
:102EA0000F5F1F4F0C0F1D1F84E8B82E8991809370
:102EB000BB00B092BC00C701B6010E946716C017E4
:102EC000D107A1F784E98093BC00DF91CF911F91D6
:102ED0000F91FF90EF90DF90CF90BF9008958832D0
:102EE000A0F567FD32C0E82FE695E695E695F0E09F
:102EF000EE0FFF1FE758F24FA591B491109729F1FB
:102F0000877021E030E0A90102C0440F551F8A9567
:102F1000E2F7CA014FB7F89412963C9112976623D4
:102F200081F0382B282F209512963C9312971196FA
:102F30003C911197232311962C9311974FBFBD01FC
:102F40000895282F20953223EFCF8AE20E94EB3795
:102F5000FB012FB7F8949281411105C08095892318
:102F600082832FBF0895892B82832FBF0895FC0190
:102F70001092260181E080934701818D8160818FCD
:102F8000448155816681778180859185A285B3854D
:102F9000840F951FA61FB71F84839583A683B783CD
:102FA00081E00895FF920F931F93CF93DF93EC017D
:102FB000F88483E08F15E0F04AE150E062ED77E1BC
:102FC00088810E9448278C0187EB97E1F801938361
:102FD00082836BE572E38C810E947727F801958BE1
:102FE000848BF08EDF91CF911F910F91FF90089508
:102FF0008DE10E94EB37CF92DF92FF920F931F93E8
:10300000CF93DF93EC016BE572E38C810E9477270D
:103010006C01F8840F2D10E0A8014D5F5F4F6BEF3E
:1030200077E188810E944827FC01D182C082F28228
:103030006C857D85A8010396DF91CF911F910F913B
:10304000FF90DF90CF900C943E398BE10E94EB37DC
:103050006F927F928F929F92AF92BF92CF92DF92A8
:10306000EF92FF920F931F93CF93DF934C01E62EC5
:10307000142F6901DC0115967C901597872D8670B9
:1030800009F451C071FC39C0F401908181819CBD6B
:103090008DBDF72DF1706F2E70FCC8C0EE2009F4C5
:1030A0009CC08FEF810F112351F0F60190819EBDDE
:1030B0000DB407FEFDCF9EB591938150B8F7662001
:1030C00091F1072D069506950695402F4095417084
:1030D000D40112966D917D918C91DF91CF911F91CA
:1030E0000F91FF90EF90DF90CF90BF90AF909F90A7
:1030F0008F907F906F900C94A817ED91FC91418573
:1031000042706681778180850E94A817B72DB170C3
:103110006B2E70FC17C0D401CD91DC91AA24AA9427
:10312000A10E111126C0DF91CF911F910F91FF9039
:10313000EF90DF90CF90BF90AF909F908F907F9057
:103140006F900895072D069506950695402F4170BE
:10315000F4016281738184810E94A817D401CD910A
:10316000DC91AA24AA94A10E112309F4AECF6624FF
:103170006394B12C8FEFA81AB80AAC0CBD1CD60111
:10318000FC9008E010E0898580FF35C0EE81FF816A
:10319000888580834F2D40786B817C818D810E9452
:1031A000A817FF0CEE81FF8188858083110FE881CD
:1031B000F98190818A81892391E009F490E0192BAB
:1031C000015009F7EE2011F0F6011083FFEFCF1A3E
:1031D000DF0AAC14BD0499F672CFF6019601210FF7
:1031E000311D2E173F0709F46ACF81918EBD0DB4B2
:1031F00007FEFDCFF6CF4F2D40786B817C818D810E
:103200000E94A817FF0CEE81FF8188858083110F33
:10321000E881F98190818A81892391E009F490E025
:10322000192BEE81FF8188858083CACF73FA4427EA
:1032300040F9F4016281738184810E94A817662499
:1032400063942CCFCF93DF93EC016BE572E388811D
:103250000E947727288539854C8160E0DF91CF91E6
:103260000C942818FF920F931F93CF93DF93EC01D8
:1032700018816BE572E3812F0E9477270C81F88417
:10328000C9852F2D3C2F402F61E00E942818CF9335
:10329000FF921F920F931F921F938CE39EE09F93C8
:1032A0008F930E9476308DB79EB708960FB6F8942C
:1032B0009EBF0FBE8DBFDF91CF911F910F91FF90E9
:1032C0000895CF93DF93EC016A8D662309F453C010
:1032D000FC0150E031E020E0A38DB48D4C91958D40
:1032E000942309F0532B2F5F330F33962613F4CF1B
:1032F0002C85922F952729F08D85852780959823F9
:10330000D9F4888D5D8787FD03C0815070F1888F67
:103310004C815D816E817F8188859985AA85BB8579
:10332000840F951FA61FB71F8C839D83AE83BF8319
:1033300081E0DF91CF910895982F909529238523DF
:10334000822B8C879E859830E0F621E0290F2E870E
:10335000FE01E90FF11D87871092260181E080931D
:1033600048018FEF888F5D87D3CF1092260191E0BF
:1033700090934801CCCF50E0BBCFAF92BF92DF9289
:10338000EF92FF920F931F93CF93DF93FC01A485DD
:10339000B585968547855089E18822893389F488E7
:1033A000A588B6887789008D118DD28C8085862777
:1033B0009C9384FD20C085FD22C086FD24C087FD2E
:1033C00026C09C93862F8295807F808768279C9358
:1033D00064FD2AC065FD25C066FD1CC067FD1EC0DA
:1033E0009C93DF91CF911F910F91FF90EF90DF9011
:1033F000BF90AF900895EA01E88285FFDECFE90132
:10340000F88286FFDCCFE501788387FFDACFE80119
:10341000D882D7CFF501708367FFE2CFE801D88269
:10342000DFCFE901F882D8CFFA01E082D3CF0F9342
:103430001F93CF93DF938C0163E47AE1DC018C91DD
:103440000E947727FC01D80114969C91828D9817D1
:10345000B8F4292F30E0E901CC0FDD1F2C0F3D1F00
:10346000EF01C20FD31FF801648580850E946F179A
:103470006B8F7C8F8D8FDF91CF911F910F9108956E
:1034800084E20E94EB37CF93FC01C481C930B8F4C9
:103490004C2F50E09A01220F331F420F531F455EFD
:1034A0005F4F63E47AE1FC0180810E944827FC01C0
:1034B000C28F21E639E133832283CF91089585E2DB
:1034C0000E94EB375F926F927F928F929F92AF92A2
:1034D000BF92CF92DF92EF92FF920F931F93CF9301
:1034E000DF938C01FC01C080D180E280F380848076
:1034F0009580A680B78066246A94660E662301F1E3
:10350000EA01712CFFEF6F1A7F0A640E751E599045
:103510000E941125DC01CB018C199D09AE09BF0960
:1035200088159905AA05BB0598F3652DC8010E9469
:10353000BD190E9411256B017C01C615D70539F70D
:10354000F801C082D182E282F382DF91CF911F9194
:103550000F91FF90EF90DF90CF90BF90AF909F9032
:103560008F907F906F905F9008950F931F93CF93EC
:10357000DF93EC016DEE7AE188810E9477278C0160
:10358000FC0161857285838541E00E94A81748850A
:1035900059856C81C801DF91CF911F910F910C94D7
:1035A000621A0F931F93CF93DF93EC016DEE7AE1D4
:1035B00088810E9477278C01FC0161857285838553
:1035C00040E00E94A817488559856C81C801DF91A9
:1035D000CF911F910F910C94621ACF92DF92EF92CC
:1035E000FF920F931F93CF93DF93EC014BE150E0D9
:1035F0006DEE7AE188810E9448278C0160E08C8121
:103600000E94C323F80161877287838760E0888501
:103610000E94C323F80164877587868760E08C85E4
:103620000E94C323F8016787708B818B60E08889D3
:103630000E94C323F801628B738B848B60E08C89BA
:103640000E94C323F801658B768B878B60E0888DA1
:103650000E94C323F801608F718F828FF8940E94BB
:1036600011256B017C0160E0C8010E94BD190E9418
:1036700011257894DC01CB018C199D09AE09BF0995
:10368000CC8CDD8CEE8CFF8C8C159D05AE05BF05BA
:1036900048F4C81AD90AEA0AFB0AF801C482D5829A
:1036A000E682F782DF91CF911F910F91FF90EF900B
:1036B000DF90CF9008954F925F926F927F928F929A
:1036C0009F92AF92BF92CF92DF92EF92FF920F93B1
:1036D0001F93CF93DF938C01562E3A01FC0180801B
:1036E0009180A280B380C480D580E680F780EA0113
:1036F0002196FA014080642D607F0E941B2E0E945B
:103700001125DC01CB0188199909AA09BB098C157F
:103710009D05AE05BF0598F3642D6295607FC801D5
:103720000E941B2E0E9411256B017C01F8018084F0
:103730009184A284B384F1E05F1639F15A945A94CB
:10374000852D90E00296680E791E5990652D607F58
:10375000C8010E941B2E0E941125DC01CB018C198F
:103760009D09AE09BF0988159905AA05BB0598F3FF
:10377000652D6295607FC8010E941B2E0E94112555
:103780006B017C01C615D70501F7F801C082D18213
:10379000E282F382DF91CF911F910F91FF90EF9022
:1037A000DF90CF90BF90AF909F908F907F906F9061
:1037B0005F904F900895CF92DF92EF92FF92CF9358
:1037C000DF93FC01A085B18582858C93968581E08D
:1037D00089278687C82FC170C688D788E08CF18C6E
:1037E00097859F5FD1899D1708F05FC0892F8695C7
:1037F00086958695DF01A80FB11D5A962C9130E071
:10380000892F877002C0359527958A95E2F7217038
:10381000B701A601C217A9F033C0892F86958695F6
:103820008695DF01A80FB11D5A962C9130E0892FA3
:10383000877002C0359527958A95E2F72170C213EB
:103840001FC04C0D5D1D6E1D7F1D9F5F9D1728F3D2
:1038500086ED9EE19383828384819581A681B781E1
:10386000480F591F6A1F7B1F4483558366837783E4
:1038700081E0DF91CF91FF90EF90DF90CF9008959E
:10388000978784819581A681B781480F591F6A1F48
:103890007B1F448355836683778381E0DF91CF91DB
:1038A000FF90EF90DF90CF900895B701A601D0CFA1
:1038B000CF92DF92EF92FF920F931F93CF93DF93FC
:1038C000EC01E885F9858A8580830E9411253E8573
:1038D00021E023272E872F852F5F2F87213009F4A2
:1038E0005CC02530E0F40C811D812E813F814A8926
:1038F0005B896C897D89DB01CA01800F911FA21F42
:10390000B31F8C839D83AE83BF8381E0DF91CF9112
:103910001F910F91FF90EF90DF90CF900895CC8092
:10392000DD80EE80FF80AB01BC014C195D096E09A2
:103930007F098E899F89A88DB98D481B590B6A0B09
:103940007B0BDB01CA010296A11DB11DB7FD34C07E
:10395000B595A79597958795B595A79597958795CB
:103960000A891B892C893D89800F911FA21FB31FD3
:103970008E8B9F8BA88FB98F2BED3BE13B832A83E6
:103980004C0D5D1D6E1D7F1D840F951FA61FB71F5B
:103990008C839D83AE83BF83B8CF0C811D812E8124
:1039A0003F81AB01BC01401B510B620B730B4E8B73
:1039B0005F8B688F798F9BCFDB01CA010596A11DB4
:1039C000B11DC6CFEF92FF920F931F93CF93DF935A
:1039D0007C0163E87DE1FC0180810E947727EC0196
:1039E0001E8511FF07C0DF91CF911F910F91FF90AE
:1039F000EF900895F701048160857185F4840B30A0
:103A000008F045C0FAE0FF1508F441C0402F50E02F
:103A10004A960E943E391F86117312601E87802FBE
:103A2000880F880F880F898BFF0CFF0CFF0CF88A1A
:103A3000002349F08A8D8F738A3229F488E59CE14E
:103A40009B838A830CC08A899B89AC89BD898E8BB4
:103A50009F8BA88FB98F8BED9BE19B838A83F89412
:103A60000E941125DC01CB018058934FAF4FBF4F0F
:103A70008C839D83AE83BF83CE010E942C347894C7
:103A8000DF91CF911F910F91FF90EF90089586E203
:103A90000E94EB370F931F93CF93DF938C0163E466
:103AA0007AE1DC018C910E947727EC01D801149611
:103AB000EC918F898E0F8F8BF8948E85E817D0F458
:103AC0008E1BF0E03F96EC0FFD1FDE011F962FEFDF
:103AD000280F30E0205F3F4F2C0F3D1F91919D93A9
:103AE000A217B307D9F78E877894DF91CF911F91F2
:103AF0000F9108951E868EEF888F7894DF91CF9175
:103B00001F910F9108957F928F929F92AF92BF92D3
:103B1000CF92DF92EF92FF920F931F93CF93DF9399
:103B2000EC0144E250E063E87DE188810E9448278F
:103B30008C0178848C809D80AE80BF80CC84DD84B5
:103B4000EE84FF8461E0711001C060E0882D0E9466
:103B50006F17F80163877487858761E08C2D0E9459
:103B6000C323F80160877187828788899989AA8928
:103B7000BB89828B938BA48BB58B711018C091E09D
:103B80008C149D04AE04BF04C1F080E0892BF801C1
:103B90008687DF91CF911F910F91FF90EF90DF907B
:103BA000CF90BF90AF909F908F907F90089591E1BC
:103BB0008C149D04AE04BF0441F780E2E7CF0F935D
:103BC0001F93CF93DF938C0163E47AE1FC01808142
:103BD0000E947727EC010E94DA33F80184819581F5
:103BE000A681B7818C839D83AE83BF834085518539
:103BF00062857385488759876A877B8780898D8727
:103C00008C871E861F8A8EEF888F8485898F87FD1B
:103C100010C0452B462B472B29F4DF91CF911F91E4
:103C20000F910895CE01DF91CF911F910F910C94C8
:103C30002C3483E20E94EB37CF93DF93EC018E8527
:103C400085FD0DC0688579858A8541E00E94A817A9
:103C50008E85807381608E87DF91CF910895E8858E
:103C6000F9858A852FB7F8949281982B9283918158
:103C7000892B81832FBF8E85807381608E87DF9132
:103C8000CF910895CF93DF93FC01A385B4855C9118
:103C90008785982F977021E030E001C0220F9A9518
:103CA000EAF7982F969596959695DF01A90FB11D85
:103CB0005A969C915A9745854523E1F0292B5A96AF
:103CC0002C938F5F90898917E8F487874481558109
:103CD0006681778186899789A08DB18D840F951F24
:103CE000A61FB71F84839583A683B78381E0DF91E6
:103CF000CF910895209529235A962C938F5F908910
:103D0000891718F3EF01CF010E941C1E8E85886071
:103D10008E871092260181E08093490180E0DF9137
:103D2000CF910895CF93DF93FC01A385B4859C9137
:103D300085858923E9F0868584608687878591E07B
:103D4000980F9787803408F5448155816681778183
:103D500086899789A08DB18D840F951FA61FB71FE7
:103D600084839583A683B78381E0DF91CF91089503
:103D7000868582FFE3CF178682E49EE19383828368
:103D8000CF01DF91CF910C94421EEF01108ACF0139
:103D90000E941C1E8E8588608E871092260181E00D
:103DA0008093490180E0DF91CF9108950F931F9395
:103DB000CF93FC01C089CC23E9F1868585FD23C022
:103DC000178682E99EE19383828386899789A08DF5
:103DD000B18D880F991FAA1FBB1F880F991FAA1F9B
:103DE000BB1F4481558166817781840F951FA61F73
:103DF000B71F84839583A683B783C1E08C2FCF91AF
:103E00001F910F910895A385B48595852FB7F894D8
:103E100084FF21C012968C911297892B909512964F
:103E20008C93129711968C911197982311969C93CD
:103E30002FBFC6CF8C010E941C1EF80186858860AA
:103E400086871092260181E0809349018C2FCF91C3
:103E50001F910F91089512968C9112979095892336
:103E6000DECF1F93CF93DF93EC01162FAC89BD8972
:103E70001097B9F01296ED91FC9113978D919C914A
:103E800011979D8B8C8B11961C921E9213961C92EF
:103E90001E921297612FCD010995AC89BD891097AB
:103EA00049F71092260181E080934A01DF91CF917A
:103EB0001F910895FC013897968990FF08C0608D86
:103EC000678B9A7F9460968BCF010E94311F80E0B0
:103ED0000895FC0186898460868B1092260181E01A
:103EE00080934A01448155816681778180899189D7
:103EF000A289B389840F951FA61FB71F848395835A
:103F0000A683B78381E00895FC01A085B1859C91CB
:103F100082858923D1F0818D80958170C9F4838D4C
:103F2000815031F1838F4481558166817781878506
:103F30009089A189B289840F951FA61FB71F84831A
:103F40009583A683B78381E00895818D817039F3CD
:103F500087E098E29383828383899489A589B689CF
:103F600084839583A683B783828D838F81E00895B0
:103F7000A789B08D56969C915697892F817090FF96
:103F8000E3CF648D57966C9357979A7F94605696BB
:103F90009C935697CD010E94311F80E00895FC014B
:103FA00080917A0086FF0EC084819581A681B781B9
:103FB0008853984FAF4FBF4F84839583A683B783B1
:103FC00081E00895828D90910901981761F09F3FDB
:103FD00059F7809309018770806480937C0087ED96
:103FE00080937A00E1CF8FEF8093090120917800D0
:103FF00030917900858D968D891780F54489558992
:10400000240F351F8F5F358B248B858F891760F1C7
:104010008689978928173907C8F1808D918D821775
:104020009307A0F1138E1092260181E080934B013B
:10403000408951896289738980859185A285B3857C
:10404000840F951FA61FB71F808B918BA28BB38BFC
:1040500084839583A683B78381E0089581E0358BBF
:10406000248B858F8917A0F64481558166817781DD
:1040700084859585A685B785840F951FA61FB71FD4
:1040800084839583A683B78381E00895838D8F5FB2
:10409000838F948D891738F2809127018111C2CFC7
:1040A0008AE10E94EB37EF92FF921F93CF93DF9349
:1040B0007C01FC0110816AEC70E2812F0E9477275D
:1040C000EC01F8948E8980FF09C0F70164816F8B41
:1040D0008A7F84608E8BCE010E94311FCE010E94A8
:1040E000DA33CE0108960E94DA331E8A8F897894DB
:1040F0001F921F921F921F921F928F931F921F92C7
:104100001F921F9386E49EE09F938F930E947630C8
:104110008DB79EB70C960FB6F8949EBF0FBE8DBF9D
:10412000DF91CF911F91FF90EF900895CF93FC0105
:10413000C08160E671E28C2F0E947727FC01F89421
:10414000818D33894489558966897894A085B185A4
:104150002C919285922321E009F420E01F922F9365
:104160006F935F934F933F93869581701F928F93C8
:104170001F92CF938BE49EE09F938F930E947630A3
:104180008DB79EB70C960FB6F8949EBF0FBE8DBF2D
:10419000CF91089549E150E06AEC70E2FC01808122
:1041A0000E94482729E63FE1FC01338322832AE568
:1041B0003FE1338722870895EF92FF920F931F9379
:1041C000CF93DF938C016AEC70E2FC0180810E9446
:1041D0007727EC01F8948E8980FF13C07E01F8E008
:1041E000EF0EF11CC7010E94DA33F801848195813A
:1041F000A681B7818C879D87AE87BF87C7010E9444
:104200002C347894DF91CF911F910F91FF90EF9014
:1042100008950F931F93CF93DF938C0160E671E2B3
:10422000FC0180810E947727EC010E94DA33F801BB
:1042300084819581A681B7818C839D83AE83BF8362
:1042400080859185A285B3858F87988BA98BBA8B42
:1042500084858A8F882361F1F801408951896289B8
:1042600073894B875C876D877E8727E038E23B83C5
:104270002A838B8F84899589A689B789892B8A2B74
:104280008B2BA1F482E0898F6AEC70E2F801808DBB
:104290000E947727988F8F8BF801848D8C8FCE01A9
:1042A000DF91CF911F910F910C942C3483E0EBCFD1
:1042B000188E1F8A198EDF91CF911F910F9108954B
:1042C0000F931F93CF93DF93EC014DE150E060E635
:1042D00071E288810E9448278C0168858C810E9448
:1042E0006F17F801608771878287DF91CF911F91E7
:1042F0000F910895CF93DF93EC010E94DA33CE0142
:1043000008960E94DA33EC89FD89309751F090814C
:1043100081811382128211821082E92FF82F309747
:10432000B1F71D8A1C8A188E1F8A1E8ADF91CF91D1
:1043300008950F931F93CF93DF938C016AEC70E283
:10434000FC0180810E947727EC01F8940E947A2179
:1043500081E08E8BF80184819581A681B7818C8361
:104360009D83AE83BF8380859185A285B385888B2D
:10437000998BAA8BBB8B892B8A2B8B2B19F0CE01A7
:104380000E942C34F8018485888F7894DF91CF9136
:104390001F910F9108950F931F93CF93DF93FC010B
:1043A000A189B2898D919C911197928B818B1696E0
:1043B0008D919C911797C085D185228521113FC091
:1043C0002FB7F894AC015527598348832FBF20910C
:1043D0004C0130914D0111963C932E93B0934D01B9
:1043E000A0934C01A189B289109759F5278530898E
:1043F0008217930741F083859485A585B68500973C
:10440000A105B10531F480E0DF91CF911F910F91AB
:1044100008954481558166817781840F951FA61F79
:10442000B71F84839583A683B78380E592E2938345
:10443000828381E0DF91CF911F910F91089588834E
:10444000C6CF12964D915D916D917C911597278500
:1044500030898217930741F083859485A585B685B9
:104460000097A105B10551F4448355836683778392
:1044700081E0DF91CF911F910F9108950481158103
:1044800026813781800F911FA21FB31F2B2F841706
:104490009507A607270B27FFE7CF8FE10E94EB3791
:1044A00080E20E94EB372F923F924F925F926F9281
:1044B0007F928F929F92AF92BF92CF92DF92EF92B4
:1044C000FF920F931F93CF93DF9300D000D01F92E2
:1044D000CDB7DEB77C012DB73EB73D832C836FE6A9
:1044E00073E1DC018C910E9477279B838A83F7011B
:1044F000F481F983D70118966D907C9019971C96DA
:104500008D919D910D90BC91A02D80FD6BC01C01E3
:104510002D015694479437942794F701E088F18849
:10452000C22CD12CF9810F2F10E0C8018C0D9D1DDC
:104530002DB73EB7281B390B0FB6F8943EBF0FBE00
:104540002DBF8DB79EB701965C01A801B3010E94F3
:104550003E394501800E911E8401222DA3016981FF
:10456000AA81BB818C910E949A16C114D10499F042
:10457000CE0CDF1CF4019601D7018D917D01809551
:10458000908189238083D9019D919D01892B8193FD
:10459000CE14DF0489F76981620DA501EA81FB81F0
:1045A00080810E942417EC81FD810FB6F894FEBF34
:1045B0000FBEEDBF0F900F900F900F900F90DF91F7
:1045C000CF911F910F91FF90EF90DF90CF90BF9010
:1045D000AF909F908F907F906F905F904F903F90A3
:1045E0002F9008958EE10E94EB37B0990FC0809113
:1045F0004F01909150010196109205011092040113
:10460000909307018093060181E0089581E086BBC5
:1046100080914F01909150010196909350018093A9
:104620004F0120E030E8309305012093040190937E
:1046300007018093060181E00895CF93DF93FC0189
:1046400084819581A681B781448955896689778956
:10465000C58DD68D3881C42FC170278D232331E0BD
:1046600009F430E0C31761F04F5F5F4F6F4F7F4F2A
:10467000448B558B668B778B808F918FA28FB38FF6
:104680004089518962897389272F481759076A071A
:104690002B0B27FF18C0248D2160248F448555855E
:1046A00066857785840F951FA61FB71F808B918B1A
:1046B000A28BB38B1092260181E080934E018481FE
:1046C0009581A681B7814085518562857385840F68
:1046D000951FA61FB71F84839583A683B78381E0A8
:1046E000DF91CF9108950F931F93CF93DF938C01A8
:1046F00065EA73E2FC0180810E947727EC010E9449
:10470000DA33F80184819581A681B7818C839D83FA
:10471000AE83BF83408551856285738548875987FD
:104720006A877B8744855585668577854C875D8755
:104730006E877F87888B998BAA8BBB8BCE01DF918D
:10474000CF911F910F910C942C340F931F93CF9303
:10475000DF93EC0140E250E065EA73E288810E9459
:1047600048278C0168858C810E946F17F801658F3E
:10477000768F878F8DE193E293838283DF91CF9150
:104780001F910F910895883278F5E82FE695E69508
:10479000E695F0E0EE0FFF1FE758F24FA591B491B8
:1047A000109711F1877021E030E0A90102C0440F99
:1047B000551F8A95E2F7CA013FB7F89412962C91DB
:1047C000129761110FC04095242312962C931297D3
:1047D00011962C911197282B11962C9311973FBF6E
:1047E000BD010895242BF1CF8BE20E94EB371F927D
:1047F0000F920FB60F921124EF92FF920F931F9317
:104800002F933F934F935F936F937F938F939F93D8
:10481000AF93BF93CF93DF93EF93FF930DC07A01D4
:1048200080918400909185008E199F0997FD7CC02E
:104830007894B29998C0F894C0912201D091230144
:10484000EA81FB81309709F0ABC0EA8DFB8D2C8D9E
:1048500020838E859F85019709F4BFC09F878E872F
:1048600088859985AA85BB854C815D816E817F8114
:10487000480F591F6A1F7B1F4C835D836E837F83A4
:1048800020832CA525FF0EC00C851D85012E000C54
:10489000220B330B800F911FA21FB31F88879987AC
:1048A000AA87BB87E881F981048115812681378138
:1048B000872F401751076207830B87FDB0CF780120
:1048C000F0932301E0932201A0912401B0912501EE
:1048D00014960D911D912D913C911797872F40179C
:1048E00051076207830B87FFFD01DF010190F08113
:1048F000E02D0481158126813781872F40175107CC
:104900006207830B87FFF1CFF983E883CD93DC93B4
:10491000D0932501C093240180918400909185005B
:104920008E199F0997FF84CF863A9F4F0CF068C07D
:10493000F0928900E0928800FF91EF91DF91CF9192
:10494000BF91AF919F918F917F916F915F914F91A7
:104950003F912F911F910F91FF90EF900F900FBEFD
:104960000F901F901895F894809184009091850085
:104970009701281B390B2038314CDCF1209126019E
:1049800027FF43C09C01205C304E30938B00209366
:104990008A0024E026BB909389008093880040CF52
:1049A000CE0109954C815D816E817F8181117ACF25
:1049B000E881F981E480F580F0932301E0932201FE
:1049C0008091240190912501C817D90709F028CFBB
:1049D000F0932501E093240123CFCE010E94942B74
:1049E000EA8DFB8D9C8D90834C815D816E817F81F2
:1049F000DDCF209127012111C1CF89E20E94EB3741
:104A00007894B299B0CFF8940BCF9C012854344FCE
:104A100030938B0020938A0024E026BB7C01F39422
:104A200087CF2FB7F89460918400709185008091B2
:104A30004F0190915001B09902C02FBF08952FBF30
:104A40007F3FE1F30196089578940E9404362FEF9A
:104A5000260F6623C1F0FC018FEF9FEF3191832772
:104A6000082E8295807F8025092E982F82958F7041
:104A70000826869598278927880F880F880F802514
:104A8000215060F708958FEF9FEF08950F931F93C4
:104A9000FC01A489B58986898C9393A181E089273B
:104AA00083A3448155816681778180FF12C0008590
:104AB000118522853385400F511F621F731F82FDB0
:104AC00012C0448355836683778381E01F910F91E1
:104AD00008950485158526853785400F511F621F6F
:104AE000731F82FFEECF0089118922893389872FB6
:104AF000401751076207830B87FDE3CF8AEA95E2EF
:104B000093838283B901A8014483558366837783A5
:104B100081E01F910F9108950895FC018081A48187
:104B2000B58140855185628573859FB7F894813042
:104B300061F0823019F04C939FBF08954D935D93BF
:104B40006D937C9313979FBF089511965C934E933A
:104B50009FBF08958F929F92AF92BF92CF92DF92A4
:104B6000EF92FF921F93CF93DF93EC01EF8CF8A0AD
:104B7000E114F10409F4F0C0F7018081918198A358
:104B80008F8F86809780A084B18411E08114910476
:104B9000A104B10409F4A1C06C897D898E89412FDB
:104BA0000E94A81780914C0190914D01F7019183CB
:104BB0008083F0924D01E0924C0181149104A10494
:104BC000B104E9F08B8D9C8DAD8DBE8D8816990654
:104BD000AA06BB06A0F44F89588D698D7A8D4115C0
:104BE00051056105710509F45BC08C819D81AE8121
:104BF000BF81480F591F6A1F7B1F166022C08BA1FF
:104C000031E081149104A104B10409F068C084FB6F
:104C1000992790F921E09227391709F443C04F8969
:104C2000588D698D7A8D4115510561057105D1F158
:104C30008C819D81AE81BF81480F591F6A1F7B1FE8
:104C40001460EF8DF8A1309709F077C02BA1488B45
:104C5000598B6A8B7B8B2071212B2BA311FF5FC09B
:104C6000880D991DAA1DBB1D12FD52C026E435E218
:104C70003B832A838C839D83AE83BF8388869986FA
:104C8000AA86BB868B8D9C8DAD8DBE8D88199909AA
:104C9000AA09BB098C879D87AE87BF8781E011C0B9
:104CA00012608BA1EF8DF8A13097D9F4188A198A78
:104CB0001A8A1B8A8071812B8BA3812F827011FD30
:104CC00034C0DF91CF911F91FF90EF90DF90CF9094
:104CD000BF90AF909F908F90089510E05DCF30E02F
:104CE00096CF4281538164817581488B598B6A8B41
:104CF0007B8B8071912F9460892B8BA311FF0FC048
:104D00008C819D81AE81BF81880D991DAA1DBB1D1F
:104D10002B2F84179507A607270B27FDA7CF4C83BA
:104D20005D836E837F8381E0CCCF40E050E0BA01A9
:104D30008C819D81AE81BF8193CFC280D380E4807E
:104D4000F580872F4C155D056E058F0987FD07C01F
:104D50008BA1B701A601C9CF85E10E94EB3783E1A2
:104D60000E94EB37FC0185818F9384818F93808132
:104D70001F928F938AE59EE09F938F930E947630D7
:104D80000F900F900F900F900F900F900895DC01EF
:104D90002C911496ED91FC9115973FB7F894213022
:104DA000E9F02230B1F0808190E0A0E0B0E03FBFB8
:104DB000BF93AF939F938F9385E59EE09F938F93CF
:104DC0000E9476300F900F900F900F900F900F90E1
:104DD000089580819181A281B381E9CF8081918101
:104DE000A0E0B0E0E4CFCF92DF92EF92FF92FC011F
:104DF00040815181628173812481E5E7FDE08591E5
:104E00009591A591B491481759076A077B0770F5EA
:104E10006A017B01C20ED11CE11CF11C8C159D05A1
:104E2000AE05BF0500F5841B90E09A01215D3C4F63
:104E30003F932F939F938F937F936F935F934F93A2
:104E400083E79EE09F938F930E9476308DB79EB745
:104E50000A960FB6F8949EBF0FBE8DBFFF90EF90DD
:104E6000DF90CF900895822F90E0DFCF80E090E038
:104E7000DCCF80912701882329F0823011F0109235
:104E80002701089582E00E94EB378EE00E94EB3705
:104E9000CF93DF9390913701891730F5C82FD0E079
:104EA000CC0FDD1FCC0FDD1FE0913801F0913901EF
:104EB000EC0FFD1F80819181892BB1F480913F011E
:104EC00090914001892B81F471836083CA010E9413
:104ED00053302091380130913901C20FD31F9B8389
:104EE0008A83DF91CF9108958BE00E94EB379091F8
:104EF0003701891788F4E0913801F091390194E085
:104F0000899FE00DF11D11248081918186179707FB
:104F100019F48281938108958CE00E94EB37CF923F
:104F2000DF92EF92FF92CF93DF93C0913F01D09138
:104F300040012097B9F121976E01E12CF12CA0914D
:104F40003E01B0E02097D9F020E030E040E050E0B2
:104F5000BA0180913C0190913D01FC01E20FF31FE9
:104F60004F5F5F4F6F4F7F4F2A0F3B1F820F931F83
:104F7000918380834C155D056E057F0550F380910C
:104F80003C0190913D01CA9FF001CB9FF00DDA9F4B
:104F9000F00D1124E80FF91F1182108290934D013A
:104FA00080934C01DF91CF91FF90EF90DF90CF90F5
:104FB0000895FC0113821282118210826F3F7105E5
:104FC00009F07CF480913F0190914001892B49F4D4
:104FD00080913E0190E08617970714F460933E019C
:104FE00008950E9445272FB7F89480914C01909125
:104FF0004D01009749F0FC014081518150934D01D2
:1050000040934C012FBF08958FE00E94EB370F9320
:105010001F93FC01A085B1859C9104811581268197
:1050200037814385548565857685400F511F621F02
:10503000731F8285892361F0818D8095817059F07D
:10504000448355836683778381E01F910F91089590
:10505000818D8170A9F7438B548B658B768B84E8A7
:105060009FE193838283CF011F910F910C94841F42
:10507000CF93DF93EC016EE37BE288810E94772778
:10508000FC018C819D81AE81BF81892B8A2B8B2B6A
:1050900051F420E0F89494A59D7F922B94A77894E6
:1050A000DF91CF91089522E0F5CF0F931F93CF9317
:1050B000DF938C01EC01A897CE010E94DA331C82A9
:1050C0001D821E821F821A8A1B8A1C8A1D8A88A141
:1050D00099A1AAA1BBA12CA54E855F856889798974
:1050E00024FD04C07695679557954795841B950BCD
:1050F000A60BB70BB7FD40C0B095A09590958195D4
:105100009F4FAF4FBF4F88A399A3AAA3BBA31E86EF
:105110001F86188A198A247128602CA76D8D7E8DB0
:105120008F8D40E00E94A8174CA544706A8D7B8D3E
:105130008C8D0E94A817D8011497ED91FC911197BE
:105140003097A9F040914C0190914D0101C0F901B7
:105150002081318140839183F0934D01E0934C0194
:105160004E2F9F2F2115310591F71D921C92DF9133
:10517000CF911F910F910895B095A095909581952D
:105180009F4FAF4FBF4FB8CF0F931F93CF93DF9376
:105190008C016EE37BE2FC0180810E947727EC01A9
:1051A0006AEC70E2F80184810E947727BE01685D95
:1051B0007F4F4FB7F8942AA53BA5232B89F425E50B
:1051C00038E23BA72AA7FC012489358939A728A7FB
:1051D000758B648B4FBFDF91CF911F910F91089515
:1051E00089E10E94EB37CF93DF93EC016EE37BE222
:1051F00088810E947727FC018C819D81AE81BF81CF
:10520000F8944685578560897189452B462B472B35
:1052100079F484839583A683B783828B938BA48B45
:10522000B58B84A5877F84A77894DF91CF9108956B
:1052300086E10E94EB37CF93FC01C0816EE37BE2F5
:105240008C2F0E947727FC01F89480A191A1A2A144
:10525000B3A124A5468557856089718924FD04C0C2
:105260007695679557954795841B950BA60BB70BBD
:10527000B7FF07C0B095A095909581959F4FAF4F10
:10528000BF4F7894B054BF93AF939F938F931F9267
:10529000CF9380E59EE09F938F930E9476308DB7E9
:1052A0009EB708960FB6F8949EBF0FBE8DBFCF91E4
:1052B0000895CF92DF92EF92FF921F93CF93DF93E7
:1052C0006A017B0163E87DE0FB019491981749F046
:1052D000675F7F4FFDE0693B7F07B1F783E30E9483
:1052E000EB37FB013896949191FF19C030EAC31651
:1052F0003FE5D306E104F10408F082C0A8EDCA1628
:10530000A7E2DA06E104F10408F08BC0B7EFCB1690
:10531000B8E0DB06E104F10488F012E010C0F8EB1D
:10532000CF16F7E4DF06E104F10408F058C037EFC8
:10533000C31638E0D306E104F10478F711E0FB016D
:105340003396A591B491FB013596C591D491FB019B
:1053500037963491E82FE695E695E695F0E0EE0F66
:10536000FF1FE758F24F459154918770E1E0F0E05C
:105370007F0101C0EE0C8A95EAF76F5F7F4FFB015A
:10538000C590D490892F8170A038B10509F45CC014
:10539000EFB7F8949881977011F0191352C01883E1
:1053A00081114AC09FB7F894622F70E0E6017983BB
:1053B00068839FBF9C913160392B3C93DA01119631
:1053C0009C911197E92A1196EC92EFBFB601DF91FB
:1053D000CF911F91FF90EF90DF90CF900895A0ECB8
:1053E000CA16AEE3DA06A1E0EA06F104D0F0C11471
:1053F000BBEFDB06B4E0EB06F10488F414E09FCFCA
:10540000C0E8CC16CEE7DC06C1E0EC06F10458F4A7
:10541000D0E4CD16DFEBDD06E104F10478F315E00E
:105420008ECF13E08CCFC114EBEFDE06E4E0EE0686
:10543000F10428F416E083CFE6012883BBCF17E000
:105440007ECF81E30E94EB3782E30E94EB374F92DD
:105450005F926F927F92BF92CF92DF92EF92FF9214
:105460000F931F93CF93DF93FC01B0806CEF7AE230
:105470008B2D0E947727EC014D805E806F807884B1
:10548000C984DA84EB84FC840E941125DC01CB0101
:1054900084199509A609B7098C159D05AE05BF05A8
:1054A00068F40E941125DC01CB0184199509A60935
:1054B000B7098C159D05AE05BF0598F3CD84DE8434
:1054C000688179818A81A0918400B09185000B81E7
:1054D0001C819E01215F3F4F7901C20ED31ECE1465
:1054E000DF0409F457C0F70191917F0128E013C050
:1054F000F8944091840050918500FB018083808363
:105500007894FA01EA1BFB0BE017F107D8F4990F26
:10551000DA01215021F397FFEBCFF89440918400FA
:1055200050918500FB0180837894FA01EA1BFB0B04
:10553000E017F10738F4990FF894FB018083789411
:10554000DA01E7CF40E00E94A8170E9411256D8381
:105550007E838F83988780E01F928F931F92BF92E4
:1055600080E09EE09F938F930E9476300F900F9083
:105570000F900F900F900F90DF91CF911F910F918F
:10558000FF90EF90DF90CF90BF907F906F905F90F3
:105590004F9008950E9411256D837E838F83988795
:1055A00081E0DACF0F931F93CF93DF93EC016CEF81
:1055B0007AE288810E9477270C811D812E813F81AC
:1055C00048856C857D8517FD14C050E0DA01A00F79
:1055D000B11FEC01ED85FE85EA17FB0750F0015F76
:1055E0001F4F800F911FDF91CF911F910F910C944E
:1055F0003E3987E20E94EB376F927F928F92CF9273
:10560000DF92EF92FF92CF93DF93EC0160E08C8109
:105610000E94C3233B01882EC884D984EA84FB847A
:10562000D7FC24C0A601415F5F4F6CEF7AE288810E
:105630000E944827FC01608271828282D686C586DC
:105640008C859D859483838388899989AA89BB8960
:1056500081879287A387B487DF91CF91FF90EF90E6
:10566000DF90CF908F907F906F90089588E20E9496
:10567000EB37FC01648180810C94C3230F931F934B
:10568000CF93DF938C014DE250E06EE37BE2FC01AF
:1056900080810E944827EC01F801848518160CF0DF
:1056A00041C064E06CA7F80184810E94C3236A8F23
:1056B0007B8F8C8F60E0F80180850E94C3236D8F03
:1056C0007E8F8F8F80E090E0A0E0B0EC88A399A35C
:1056D000AAA3BBA3F80180899189A289B3898E8B83
:1056E0009F8BA88FB98F6BE070E0CE0184960E94EB
:1056F000D9278E899F89A88DB98D8997A105B10574
:1057000048F081ED9CE29B838A83DF91CF911F91CA
:105710000F9108958CA580618CA7DF91CF911F9187
:105720000F91089560E0BECFCF92DF92EF92FF928B
:10573000CF93DF93FC01A4A1B5A1109761F4168665
:105740001786108A118A80E0DF91CF91FF90EF9049
:10575000DF90CF9008958D919C91119795A384A38C
:1057600016968D919C911797958784871296CD9068
:10577000DD90ED90FC901597AC01092E000C660BA6
:10578000770B4C0D5D1D6E1D7F1D40875187628715
:10579000738724A524FD43C0428953896489758990
:1057A000C40ED51EE61EF71EC28AD38AE48AF58A85
:1057B000C482D582E682F78218968D919C911997C2
:1057C000AC0160E070E0440F551F661F771F4687ED
:1057D0005787608B718B1A962C911A9720FD3FC0CA
:1057E00040A151A162A173A1480F591F611D711DF4
:1057F00040A351A362A373A380914C0190914D01EA
:1058000011969C938E93B0934D01A0934C0181E02F
:10581000DF91CF91FF90EF90DF90CF90089544817A
:10582000558166817781C40ED51EE61EF71EC4829F
:10583000D582E682F782892B31F1206224A718965F
:105840008D919C911997AC0160E070E04687578775
:10585000608B718B1A962C911A9720FFC1CFAC01E7
:1058600060E070E0C0A0D1A0E2A0F3A04C195D09F7
:105870006E097F0940A351A362A373A3C58DD68D82
:10588000878D8883B9CF2F7DD9CF0F931F93CF9367
:10589000DF938C016EE37BE2DC018C910E94772721
:1058A000EC010E94F327FC01D80114964D915D9103
:1058B0006D917C9117974283538364837583189607
:1058C0008D919C91199791878087892B09F466C0E7
:1058D000D8011C968D919C911D9797838683128683
:1058E000F8948CA5282F217081FB992790F929170E
:1058F00029F091E089279285916092874E855F8596
:1059000068897989452B462B472B59F583FD19C0AA
:105910008CA7118210828CA19DA1892BA9F1AEA127
:10592000BFA1ED93FC93FFA3EEA3CE010E94942BA5
:10593000CE010E942C347894DF91CF911F910F916A
:10594000089580914C0190914D0191838083F09353
:105950004D01E0934C017894DF91CF911F910F910D
:1059600008958CA7118210828CA19DA1892B89F0AA
:10597000AEA1BFA1ED93FC93FFA3EEA37894DF91BA
:10598000CF911F910F910895FFA3EEA3FDA3ECA368
:10599000CCCFFFA3EEA3FDA3ECA3CDCF87E10E9464
:1059A000EB37CF92DF92EF92FF920F931F93CF933B
:1059B000DF93EC01EA8DFB8D8C8D80830E94112595
:1059C0000E891F89288D398D6B017C01C00ED11E77
:1059D000E21EF31E8E859F85A889B9890197A109CA
:1059E000B1098E879F87A88BB98B80FF0EC0CC82B0
:1059F000DD82EE82FF8281E0DF91CF911F910F91D6
:105A0000FF90EF90DF90CF900895892B8A2B8B2BFE
:105A100059F1488559856A857B858A899B89AC8936
:105A2000BD89840F951FA61FB71F8A8B9B8BAC8BDC
:105A3000BD8B0C851D85012E000C220B330B400FF6
:105A4000511F621F731F488759876A877B872B2FD7
:105A50008C159D05AE052F0927FDC9CF8C839D832D
:105A6000AE83BF8381E0C8CFCE010E94942B811109
:105A700002C080E0C1CF4C815D816E817F81972F14
:105A80004C155D056E059F0997FFB6CF4C195D0952
:105A90006E097F094038514C6F4F7F4F0CF0A7CFF4
:105AA00088E10E94EB370F931F93CF93DF938C0114
:105AB00044E450E063E57DE2FC0180810E944827D8
:105AC000EC018AEA94E39B838A836FE673E1F80131
:105AD00084810E9477279D878C87DF91CF911F91CA
